{"abi":[{"type":"constructor","inputs":[{"name":"_helixa","type":"address","internalType":"address"}],"stateMutability":"nonpayable"},{"type":"function","name":"connected","inputs":[{"name":"","type":"bytes32","internalType":"bytes32"}],"outputs":[{"name":"","type":"bool","internalType":"bool"}],"stateMutability":"view"},{"type":"function","name":"handshakeCount","inputs":[{"name":"","type":"uint256","internalType":"uint256"}],"outputs":[{"name":"","type":"uint256","internalType":"uint256"}],"stateMutability":"view"},{"type":"function","name":"helixa","inputs":[],"outputs":[{"name":"","type":"address","internalType":"address"}],"stateMutability":"view"},{"type":"function","name":"isConnected","inputs":[{"name":"a","type":"uint256","internalType":"uint256"},{"name":"b","type":"uint256","internalType":"uint256"}],"outputs":[{"name":"","type":"bool","internalType":"bool"}],"stateMutability":"view"},{"type":"function","name":"owner","inputs":[],"outputs":[{"name":"","type":"address","internalType":"address"}],"stateMutability":"view"},{"type":"function","name":"recordHandshake","inputs":[{"name":"fromTokenId","type":"uint256","internalType":"uint256"},{"name":"toTokenId","type":"uint256","internalType":"uint256"}],"outputs":[],"stateMutability":"nonpayable"},{"type":"function","name":"totalHandshakes","inputs":[],"outputs":[{"name":"","type":"uint256","internalType":"uint256"}],"stateMutability":"view"},{"type":"function","name":"transferOwnership","inputs":[{"name":"newOwner","type":"address","internalType":"address"}],"outputs":[],"stateMutability":"nonpayable"},{"type":"event","name":"HandshakeCompleted","inputs":[{"name":"fromTokenId","type":"uint256","indexed":true,"internalType":"uint256"},{"name":"toTokenId","type":"uint256","indexed":true,"internalType":"uint256"},{"name":"timestamp","type":"uint256","indexed":false,"internalType":"uint256"}],"anonymous":false}],"bytecode":{"object":"0x60a034607757601f61049c38819003918201601f19168301916001600160401b03831184841017607b57808492602094604052833981010312607757516001600160a01b03811681036077576080525f80546001600160a01b0319163317905560405161040c90816100908239608051816101020152f35b5f80fd5b634e487b7160e01b5f52604160045260245ffdfe6080806040526004361015610012575f80fd5b5f3560e01c9081631754a407146102e5575080631ad73078146102b357806322835b851461029657806385fe7c09146101585780638da5cb5b14610131578063a5d6b845146100ed578063a7e3b788146100c35763f2fde38b14610074575f80fd5b346100bf5760203660031901126100bf576004356001600160a01b038116908190036100bf575f546100b0336001600160a01b03831614610326565b6001600160a01b031916175f55005b5f80fd5b346100bf5760203660031901126100bf576004355f526002602052602060405f2054604051908152f35b346100bf575f3660031901126100bf576040517f00000000000000000000000000000000000000000000000000000000000000006001600160a01b03168152602090f35b346100bf575f3660031901126100bf575f546040516001600160a01b039091168152602090f35b346100bf5761016636610310565b9061017b60018060a01b035f54163314610326565b8181146102595761018c8282610380565b805f52600360205260ff60405f205416610220575f52600360205260405f20600160ff19825416179055805f52600260205260405f206101cc815461035e565b9055815f52600260205260405f206101e4815461035e565b90556101f160015461035e565b6001557f5f75c67b56ebfa290a22b38cd9007ee531e0dcc424d164c08d3782ffc0f100516020604051428152a3005b60405162461bcd60e51b8152602060048201526011602482015270105b1c9958591e4818dbdb9b9958dd1959607a1b6044820152606490fd5b60405162461bcd60e51b815260206004820152601560248201527421b0b73737ba103430b73239b430b5b29039b2b63360591b6044820152606490fd5b346100bf575f3660031901126100bf576020600154604051908152f35b346100bf576102ca6102c436610310565b90610380565b5f526003602052602060ff60405f2054166040519015158152f35b346100bf5760203660031901126100bf576020906004355f526003825260ff60405f20541615158152f35b60409060031901126100bf576004359060243590565b1561032d57565b60405162461bcd60e51b81526020600482015260096024820152682737ba1037bbb732b960b91b6044820152606490fd5b5f19811461036c5760010190565b634e487b7160e01b5f52601160045260245ffd5b818110156103d157905b6040805160208101938452808201929092528152606081016001600160401b038111828210176103bd5760405251902090565b634e487b7160e01b5f52604160045260245ffd5b61038a56fea264697066735822122002ef17dbaac567e72943fe19bb7b08eab1616cfe3cd0b23f716e833a92a6ab8664736f6c634300081c0033","linkReferences":{}},"methodIdentifiers":{"connected(bytes32)":"1754a407","handshakeCount(uint256)":"a7e3b788","helixa()":"a5d6b845","isConnected(uint256,uint256)":"1ad73078","owner()":"8da5cb5b","recordHandshake(uint256,uint256)":"85fe7c09","totalHandshakes()":"22835b85","transferOwnership(address)":"f2fde38b"},"id":0}