{"abi":[{"type":"constructor","inputs":[{"name":"_helixa","type":"address","internalType":"address"}],"stateMutability":"nonpayable"},{"type":"function","name":"LOCK_COOLDOWN","inputs":[],"outputs":[{"name":"","type":"uint256","internalType":"uint256"}],"stateMutability":"view"},{"type":"function","name":"getFullSoulHistory","inputs":[{"name":"tokenId","type":"uint256","internalType":"uint256"}],"outputs":[{"name":"hashes","type":"bytes32[]","internalType":"bytes32[]"},{"name":"timestamps","type":"uint256[]","internalType":"uint256[]"}],"stateMutability":"view"},{"type":"function","name":"getSoulHash","inputs":[{"name":"tokenId","type":"uint256","internalType":"uint256"},{"name":"version","type":"uint256","internalType":"uint256"}],"outputs":[{"name":"","type":"bytes32","internalType":"bytes32"}],"stateMutability":"view"},{"type":"function","name":"getSoulTimestamp","inputs":[{"name":"tokenId","type":"uint256","internalType":"uint256"},{"name":"version","type":"uint256","internalType":"uint256"}],"outputs":[{"name":"","type":"uint256","internalType":"uint256"}],"stateMutability":"view"},{"type":"function","name":"getSoulVersion","inputs":[{"name":"tokenId","type":"uint256","internalType":"uint256"}],"outputs":[{"name":"","type":"uint256","internalType":"uint256"}],"stateMutability":"view"},{"type":"function","name":"getSovereignWallet","inputs":[{"name":"tokenId","type":"uint256","internalType":"uint256"}],"outputs":[{"name":"","type":"address","internalType":"address"}],"stateMutability":"view"},{"type":"function","name":"helixa","inputs":[],"outputs":[{"name":"","type":"address","internalType":"contract IHelixaV2"}],"stateMutability":"view"},{"type":"function","name":"isSovereign","inputs":[{"name":"tokenId","type":"uint256","internalType":"uint256"}],"outputs":[{"name":"","type":"bool","internalType":"bool"}],"stateMutability":"view"},{"type":"function","name":"lockSoul","inputs":[{"name":"tokenId","type":"uint256","internalType":"uint256"},{"name":"_soulHash","type":"bytes32","internalType":"bytes32"}],"outputs":[],"stateMutability":"nonpayable"},{"type":"function","name":"lockSoulVersion","inputs":[{"name":"tokenId","type":"uint256","internalType":"uint256"},{"name":"_soulHash","type":"bytes32","internalType":"bytes32"}],"outputs":[],"stateMutability":"nonpayable"},{"type":"function","name":"soulHash","inputs":[{"name":"tokenId","type":"uint256","internalType":"uint256"}],"outputs":[{"name":"","type":"bytes32","internalType":"bytes32"}],"stateMutability":"view"},{"type":"function","name":"soulHashes","inputs":[{"name":"","type":"uint256","internalType":"uint256"},{"name":"","type":"uint256","internalType":"uint256"}],"outputs":[{"name":"","type":"bytes32","internalType":"bytes32"}],"stateMutability":"view"},{"type":"function","name":"soulLocked","inputs":[{"name":"tokenId","type":"uint256","internalType":"uint256"}],"outputs":[{"name":"","type":"bool","internalType":"bool"}],"stateMutability":"view"},{"type":"function","name":"soulTimestamps","inputs":[{"name":"","type":"uint256","internalType":"uint256"},{"name":"","type":"uint256","internalType":"uint256"}],"outputs":[{"name":"","type":"uint256","internalType":"uint256"}],"stateMutability":"view"},{"type":"function","name":"soulVersion","inputs":[{"name":"","type":"uint256","internalType":"uint256"}],"outputs":[{"name":"","type":"uint256","internalType":"uint256"}],"stateMutability":"view"},{"type":"function","name":"sovereignWallet","inputs":[{"name":"","type":"uint256","internalType":"uint256"}],"outputs":[{"name":"","type":"address","internalType":"address"}],"stateMutability":"view"},{"type":"event","name":"SoulLocked","inputs":[{"name":"tokenId","type":"uint256","indexed":true,"internalType":"uint256"},{"name":"sovereignWallet","type":"address","indexed":true,"internalType":"address"},{"name":"soulHash","type":"bytes32","indexed":false,"internalType":"bytes32"}],"anonymous":false},{"type":"event","name":"SoulVersionLocked","inputs":[{"name":"tokenId","type":"uint256","indexed":true,"internalType":"uint256"},{"name":"version","type":"uint256","indexed":true,"internalType":"uint256"},{"name":"soulHash","type":"bytes32","indexed":false,"internalType":"bytes32"},{"name":"timestamp","type":"uint256","indexed":false,"internalType":"uint256"}],"anonymous":false}],"bytecode":{"object":"0x60a034606f57601f6109f938819003918201601f19168301916001600160401b03831184841017607357808492602094604052833981010312606f57516001600160a01b03811690819003606f576080526040516109719081610088823960805181818161011601526105610152f35b5f80fd5b634e487b7160e01b5f52604160045260245ffdfe60806040526004361015610011575f80fd5b5f3560e01c806314afb81a1461040f5780631f9cb885146101455780632b907e331461016e5780633be7faa8146103af57806350f8e3f61461022a57806351683810146101fb578063544ae45f146101fb5780635c87ee84146101df5780635da6d4dd146101c65780638d2c9c1f146101a05780638f0c70061461016e57806395e63a4f14610145578063a5d6b84514610101578063af3e7986146100ce578063d1dd0f1f146100ce5763f4d5a4b1146100c9575f80fd5b61040f565b346100fd576100dc3661043a565b905f52600260205260405f20905f52602052602060405f2054604051908152f35b5f80fd5b346100fd575f3660031901126100fd576040517f00000000000000000000000000000000000000000000000000000000000000006001600160a01b03168152602090f35b346100fd5760203660031901126100fd576004355f525f602052602060405f2054604051908152f35b346100fd5760203660031901126100fd576004355f526003602052602060018060a01b0360405f205416604051908152f35b346100fd5760203660031901126100fd5760206101be600435610909565b604051908152f35b346100fd576101dd6101d73661043a565b9061054b565b005b346100fd575f3660031901126100fd576020604051610e108152f35b346100fd576102093661043a565b905f52600160205260405f20905f52602052602060405f2054604051908152f35b346100fd5760203660031901126100fd57600435805f525f60205260405f20549061025482610487565b906102626040519283610450565b82825261026e83610487565b6020830190601f190136823761028384610487565b936102916040519586610450565b80855261029d81610487565b602086019390601f190136853760015b8281111561033157505050604051938493604085019060408652518091526060850192905f5b818110610318575050506020908483038286015251918281520191905f5b8181106102ff575050500390f35b82518452859450602093840193909201916001016102f1565b82518552879650602094850194909201916001016102d3565b815f979495969752600160205260405f20815f5260205260405f20545f1982019082821161039b57610363828a61049e565b52825f52600260205260405f20825f5260205261038560405f2054918661049e565b525f19811461039b5760010195949392956102ad565b634e487b7160e01b5f52601160045260245ffd5b346100fd576103bd3661043a565b815f525f60205260405f20546103d6576101dd9161054b565b60405162461bcd60e51b815260206004820152601160248201527020b63932b0b23c9039b7bb32b932b4b3b760791b6044820152606490fd5b346100fd5760203660031901126100fd576004355f525f602052602060405f20541515604051908152f35b60409060031901126100fd576004359060243590565b601f909101601f19168101906001600160401b0382119082101761047357604052565b634e487b7160e01b5f52604160045260245ffd5b6001600160401b0381116104735760051b60200190565b80518210156104b25760209160051b010190565b634e487b7160e01b5f52603260045260245ffd5b51906001600160a01b03821682036100fd57565b81601f820112156100fd578051906001600160401b038211610473576040519261050e601f8401601f191660200185610450565b828452602083830101116100fd57815f9260208093018386015e8301015290565b519081151582036100fd57565b519061ffff821682036100fd57565b604051632de5aaf760e01b8152600481018290527f00000000000000000000000000000000000000000000000000000000000000006001600160a01b0316905f81602481855afa9081156107a8575f916107b3575b50516001600160a01b0316331490811561072e575b50156106f857805f525f60205260405f20549182610697575b6001830180931161039b5760407fee182c4bbdbc2cba85c8d9d08e2abc474ec04ad83dc5c261aecab5ffa42d965f91835f525f60205284825f2055835f526001602052815f20855f5260205280825f2055835f526002602052815f20855f5260205242825f20556001851461064c575b8151908152426020820152a3565b835f526003602052815f203360018060a01b03198254161790558151818152847fac29b5290f1b4b2badef2c3f687090fb61e444af17540010050d1c43a770d6e960203393a361063e565b815f52600260205260405f20835f5260205260405f2054610e10810180911161039b574210156105ce5760405162461bcd60e51b815260206004820152600f60248201526e436f6f6c646f776e2061637469766560881b6044820152606490fd5b60405162461bcd60e51b815260206004820152600e60248201526d139bdd08185d5d1a1bdc9a5e995960921b6044820152606490fd5b60249150602090604051928380926331a9108f60e11b82528660048301525afa9081156107a8575f9161076e575b506001600160a01b031633145f6105b5565b90506020813d6020116107a0575b8161078960209383610450565b810103126100fd5761079a906104c6565b5f61075c565b3d915061077c565b6040513d5f823e3d90fd5b90503d805f833e6107c48183610450565b8101906020818303126100fd578051906001600160401b0382116100fd5701610160818303126100fd576040519161016083016001600160401b0381118482101761047357604052610815826104c6565b835260208201516001600160401b0381116100fd57816108369184016104da565b602084015260408201516001600160401b0381116100fd578161085a9184016104da565b604084015260608201516001600160401b03811681036100fd5760608401526108856080830161052f565b608084015261089660a0830161052f565b60a084015260c082015160ff811681036100fd5760c08401526108bb60e0830161053c565b60e08401526101008201516101008401526108d9610120830161053c565b6101208401526101408201516001600160401b0381116100fd576108fd92016104da565b6101408201525f6105a0565b805f525f60205260405f2054908115610935575f52600160205260405f20905f5260205260405f205490565b50505f9056fea26469706673582212202f7fec454543dbe0a121e123fad0309d97f4becf624252279c2a810b63e31a5b64736f6c634300081c0033","linkReferences":{}},"methodIdentifiers":{"LOCK_COOLDOWN()":"5c87ee84","getFullSoulHistory(uint256)":"50f8e3f6","getSoulHash(uint256,uint256)":"51683810","getSoulTimestamp(uint256,uint256)":"af3e7986","getSoulVersion(uint256)":"95e63a4f","getSovereignWallet(uint256)":"8f0c7006","helixa()":"a5d6b845","isSovereign(uint256)":"f4d5a4b1","lockSoul(uint256,bytes32)":"3be7faa8","lockSoulVersion(uint256,bytes32)":"5da6d4dd","soulHash(uint256)":"8d2c9c1f","soulHashes(uint256,uint256)":"544ae45f","soulLocked(uint256)":"14afb81a","soulTimestamps(uint256,uint256)":"d1dd0f1f","soulVersion(uint256)":"1f9cb885","sovereignWallet(uint256)":"2b907e33"},"id":41}