{"abi":[{"type":"constructor","inputs":[{"name":"_helixa","type":"address","internalType":"address"}],"stateMutability":"nonpayable"},{"type":"function","name":"getFullSoulHistory","inputs":[{"name":"tokenId","type":"uint256","internalType":"uint256"}],"outputs":[{"name":"hashes","type":"bytes32[]","internalType":"bytes32[]"},{"name":"timestamps","type":"uint256[]","internalType":"uint256[]"}],"stateMutability":"view"},{"type":"function","name":"getSoulHash","inputs":[{"name":"tokenId","type":"uint256","internalType":"uint256"},{"name":"version","type":"uint256","internalType":"uint256"}],"outputs":[{"name":"","type":"bytes32","internalType":"bytes32"}],"stateMutability":"view"},{"type":"function","name":"getSoulTimestamp","inputs":[{"name":"tokenId","type":"uint256","internalType":"uint256"},{"name":"version","type":"uint256","internalType":"uint256"}],"outputs":[{"name":"","type":"uint256","internalType":"uint256"}],"stateMutability":"view"},{"type":"function","name":"getSoulVersion","inputs":[{"name":"tokenId","type":"uint256","internalType":"uint256"}],"outputs":[{"name":"","type":"uint256","internalType":"uint256"}],"stateMutability":"view"},{"type":"function","name":"getSovereignWallet","inputs":[{"name":"tokenId","type":"uint256","internalType":"uint256"}],"outputs":[{"name":"","type":"address","internalType":"address"}],"stateMutability":"view"},{"type":"function","name":"helixa","inputs":[],"outputs":[{"name":"","type":"address","internalType":"contract IHelixaV2"}],"stateMutability":"view"},{"type":"function","name":"isSovereign","inputs":[{"name":"tokenId","type":"uint256","internalType":"uint256"}],"outputs":[{"name":"","type":"bool","internalType":"bool"}],"stateMutability":"view"},{"type":"function","name":"lockSoul","inputs":[{"name":"tokenId","type":"uint256","internalType":"uint256"},{"name":"_soulHash","type":"bytes32","internalType":"bytes32"}],"outputs":[],"stateMutability":"nonpayable"},{"type":"function","name":"lockSoulVersion","inputs":[{"name":"tokenId","type":"uint256","internalType":"uint256"},{"name":"_soulHash","type":"bytes32","internalType":"bytes32"}],"outputs":[],"stateMutability":"nonpayable"},{"type":"function","name":"soulHash","inputs":[{"name":"tokenId","type":"uint256","internalType":"uint256"}],"outputs":[{"name":"","type":"bytes32","internalType":"bytes32"}],"stateMutability":"view"},{"type":"function","name":"soulHashes","inputs":[{"name":"","type":"uint256","internalType":"uint256"},{"name":"","type":"uint256","internalType":"uint256"}],"outputs":[{"name":"","type":"bytes32","internalType":"bytes32"}],"stateMutability":"view"},{"type":"function","name":"soulLocked","inputs":[{"name":"tokenId","type":"uint256","internalType":"uint256"}],"outputs":[{"name":"","type":"bool","internalType":"bool"}],"stateMutability":"view"},{"type":"function","name":"soulTimestamps","inputs":[{"name":"","type":"uint256","internalType":"uint256"},{"name":"","type":"uint256","internalType":"uint256"}],"outputs":[{"name":"","type":"uint256","internalType":"uint256"}],"stateMutability":"view"},{"type":"function","name":"soulVersion","inputs":[{"name":"","type":"uint256","internalType":"uint256"}],"outputs":[{"name":"","type":"uint256","internalType":"uint256"}],"stateMutability":"view"},{"type":"function","name":"sovereignWallet","inputs":[{"name":"","type":"uint256","internalType":"uint256"}],"outputs":[{"name":"","type":"address","internalType":"address"}],"stateMutability":"view"},{"type":"event","name":"SoulLocked","inputs":[{"name":"tokenId","type":"uint256","indexed":true,"internalType":"uint256"},{"name":"sovereignWallet","type":"address","indexed":true,"internalType":"address"},{"name":"soulHash","type":"bytes32","indexed":false,"internalType":"bytes32"}],"anonymous":false},{"type":"event","name":"SoulVersionLocked","inputs":[{"name":"tokenId","type":"uint256","indexed":true,"internalType":"uint256"},{"name":"version","type":"uint256","indexed":true,"internalType":"uint256"},{"name":"soulHash","type":"bytes32","indexed":false,"internalType":"bytes32"},{"name":"timestamp","type":"uint256","indexed":false,"internalType":"uint256"}],"anonymous":false}],"bytecode":{"object":"0x60a034606f57601f61091b38819003918201601f19168301916001600160401b03831184841017607357808492602094604052833981010312606f57516001600160a01b03811690819003606f576080526040516108939081610088823960805181818161010b015261052b0152f35b5f80fd5b634e487b7160e01b5f52604160045260245ffdfe60806040526004361015610011575f80fd5b5f3560e01c806314afb81a146103e85780631f9cb8851461013a5780632b907e33146101635780633be7faa81461038857806350f8e3f61461020357806351683810146101d4578063544ae45f146101d45780635da6d4dd146101bb5780638d2c9c1f146101955780638f0c70061461016357806395e63a4f1461013a578063a5d6b845146100f6578063af3e7986146100c3578063d1dd0f1f146100c35763f4d5a4b1146100be575f80fd5b6103e8565b346100f2576100d136610413565b905f52600260205260405f20905f52602052602060405f2054604051908152f35b5f80fd5b346100f2575f3660031901126100f2576040517f00000000000000000000000000000000000000000000000000000000000000006001600160a01b03168152602090f35b346100f25760203660031901126100f2576004355f525f602052602060405f2054604051908152f35b346100f25760203660031901126100f2576004355f526003602052602060018060a01b0360405f205416604051908152f35b346100f25760203660031901126100f25760206101b360043561082b565b604051908152f35b346100f2576101d26101cc36610413565b90610515565b005b346100f2576101e236610413565b905f52600160205260405f20905f52602052602060405f2054604051908152f35b346100f25760203660031901126100f257600435805f525f60205260405f20549061022d82610460565b9061023b6040519283610429565b82825261024783610460565b6020830190601f190136823761025c84610460565b9361026a6040519586610429565b80855261027681610460565b602086019390601f190136853760015b8281111561030a57505050604051938493604085019060408652518091526060850192905f5b8181106102f1575050506020908483038286015251918281520191905f5b8181106102d8575050500390f35b82518452859450602093840193909201916001016102ca565b82518552879650602094850194909201916001016102ac565b815f979495969752600160205260405f20815f5260205260405f20545f198201908282116103745761033c828a610477565b52825f52600260205260405f20825f5260205261035e60405f20549186610477565b525f198114610374576001019594939295610286565b634e487b7160e01b5f52601160045260245ffd5b346100f25761039636610413565b815f525f60205260405f20546103af576101d291610515565b60405162461bcd60e51b815260206004820152601160248201527020b63932b0b23c9039b7bb32b932b4b3b760791b6044820152606490fd5b346100f25760203660031901126100f2576004355f525f602052602060405f20541515604051908152f35b60409060031901126100f2576004359060243590565b601f909101601f19168101906001600160401b0382119082101761044c57604052565b634e487b7160e01b5f52604160045260245ffd5b6001600160401b03811161044c5760051b60200190565b805182101561048b5760209160051b010190565b634e487b7160e01b5f52603260045260245ffd5b51906001600160a01b03821682036100f257565b81601f820112156100f2578051906001600160401b03821161044c57604051926104e7601f8401601f191660200185610429565b828452602083830101116100f257815f9260208093018386015e8301015290565b519081151582036100f257565b604051632de5aaf760e01b8152600481018290527f00000000000000000000000000000000000000000000000000000000000000006001600160a01b0316905f81602481855afa90811561070b575f91610716575b50516001600160a01b03163314908115610691575b501561065b57805f525f60205260405f205491600183018093116103745760407fee182c4bbdbc2cba85c8d9d08e2abc474ec04ad83dc5c261aecab5ffa42d965f91835f525f60205284825f2055835f526001602052815f20855f5260205280825f2055835f526002602052815f20855f5260205242825f205560018514610610575b8151908152426020820152a3565b835f526003602052815f203360018060a01b03198254161790558151818152847fac29b5290f1b4b2badef2c3f687090fb61e444af17540010050d1c43a770d6e960203393a3610602565b60405162461bcd60e51b815260206004820152600e60248201526d139bdd08185d5d1a1bdc9a5e995960921b6044820152606490fd5b60249150602090604051928380926331a9108f60e11b82528660048301525afa90811561070b575f916106d1575b506001600160a01b031633145f61057f565b90506020813d602011610703575b816106ec60209383610429565b810103126100f2576106fd9061049f565b5f6106bf565b3d91506106df565b6040513d5f823e3d90fd5b90503d805f833e6107278183610429565b8101906020818303126100f2578051906001600160401b0382116100f25701610140818303126100f2576040519161014083016001600160401b0381118482101761044c576040526107788261049f565b835260208201516001600160401b0381116100f257816107999184016104b3565b60208401526040820151906001600160401b0382116100f2576107bd9183016104b3565b60408301526107ce60608201610508565b60608301526107df60808201610508565b608083015260a08101519060ff821682036100f2576101209160a084015260c081015160c084015260e081015160e084015261010081015161010084015201516101208201525f61056a565b805f525f60205260405f2054908115610857575f52600160205260405f20905f5260205260405f205490565b50505f9056fea2646970667358221220d3bdc7c323d2fe4e7a0d8b253d4a763bc94f1f272c7795abc02fbd531be43dc464736f6c634300081c0033","linkReferences":{}},"methodIdentifiers":{"getFullSoulHistory(uint256)":"50f8e3f6","getSoulHash(uint256,uint256)":"51683810","getSoulTimestamp(uint256,uint256)":"af3e7986","getSoulVersion(uint256)":"95e63a4f","getSovereignWallet(uint256)":"8f0c7006","helixa()":"a5d6b845","isSovereign(uint256)":"f4d5a4b1","lockSoul(uint256,bytes32)":"3be7faa8","lockSoulVersion(uint256,bytes32)":"5da6d4dd","soulHash(uint256)":"8d2c9c1f","soulHashes(uint256,uint256)":"544ae45f","soulLocked(uint256)":"14afb81a","soulTimestamps(uint256,uint256)":"d1dd0f1f","soulVersion(uint256)":"1f9cb885","sovereignWallet(uint256)":"2b907e33"},"id":66}